0162000261020010001205288882000                                                                                                                                                                                                                                                                                                                                 
1062100261020010001205288882000                                                                                                                                                                                                                                                                                                                                 
2062102261020010001205288882000                                                                                                                                                                                                                                                                                                                                 
3062102205212990000001420528888  0000490000000000000000          00000009015000000000000000000000000000000000150000110040000002341220000000901500                                                                                                                                                                                                               
3062102205212990000002520528888  0001820000900000000000          00001000000000000000000000000000000000000000000000320000000000002210001500000000                                                                                                                                                                                                               
40621022052200000000200001009015000000000000                                                                                                                                                                                                                                                                                                                    
2062103261020010001205288882000                                                                                                                                                                                                                                                                                                                                 
3062103205212990000004020528888  0000490000000000000000          00001600000000000000000000000000000000000000000000050000000000000000        2343   44705729P000000001510200101SAULO ALVARADO MATEOS                                                           00001550000050000000000                                                                          
3062103205212990000005120528888  0000490000000000000000          00000723212000000000000000000000031413000012033230030000000000000234                        000000001810200104PRUEBA DE CONCEPTO COMPLEMENTARIO                                               00000700000023000000212                                                                          
40621032052200000000200002323212000000000000                                                                                                                                                                                                                                                                                                                    
2062105261020010001205288882000                                                                                                                                                                                                                                                                                                                                 
3062105205212990000006220528888  0000490000000000000000          0000423420000000000000000000000000000000000000000300491200000023331                                                                                                                                                                                                                            
3062105205212990000017620528888  0001820000900000000000          0000005745700000000000000000000000000000000095600011111111111111112                                                                                                                                                                                                                            
3062105205212990000007320528888  0001820000900000000000          0000001081800000000000000000000000000000000018000200000000000000002                                                                                                                                                                                                                            
40621052052200000000300004302475000000000000                                                                                                                                                                                                                                                                                                                    
2062112261020010001205288882000                                                                                                                                                                                                                                                                                                                                 
3062112205212990000008420528888  0000490000000000000000          00000019859000000000000000000000000000000000330420400000000000000000198591000000000000                                                                                                                                                                                                         
3062112205212990000009520528888  0001820000900000000000          00000001205000000000000000000000000000000000000000100000001231231230011002000105000000RECUPERACION EFECTUADA POR PEPITO PEREZ                                                                                                                                                                  
40621122052200000000200000021064000000000000                                                                                                                                                                                                                                                                                                                    
2062114261020010001205288882000                                                                                                                                                                                                                                                                                                                                 
3062114205212990000010620528888  0000490000000000000000          00000060402000000000000000000000000000000001005001PRUEBA DEL REGISTRO 14                                                                                                                                                                                                                       
3062114205212990000011020528888  0001820000900000000000          00000008934000000000000000000000000000000000000000SIN REGULARIZACIÓN C.U.C                                                                                                                                                                                                                     
40621142052200000000200000069336000000000000                                                                                                                                                                                                                                                                                                                    
506210026102001000120528888200000002300001100007725102000000000000                                                                                                                                                                                                                                                                                              
1062200261020010001205288882000                                                                                                                                                                                                                                                                                                                                 
2062203261020010001205288882000                                                                                                                                                                                                                                                                                                                                 
3062203205212990000003620528888  0000490000000000000000          00000500045000000000000000000000000000000000000000030000000000000034                        000000000710200102                                                                                00001200000000000000000                                                                          
3062203205212990000012120528888  0001820000900000000000          00000033657000000000000000000000000000000000560000080182128000000450                        324234341910200101                                                                                00000020000013657000000                                                                          
40622032052200000000200000533702000000000000                                                                                                                                                                                                                                                                                                                    
2062207261020010001205288882000                                                                                                                                                                                                                                                                                                                                 
3062207205212990000014320528888  0000490000000000000000          000443400000000000000000000000000000000000000000005122001300000000000000002001123123000004430000030102001040000PRUEBA DE CONCEPTO COMPLEMENTARIO                                               2
3062207205212990000013220528888  0000490000000000000000          000100032000000000000000000000000000000000000000000000000000000000000000001000000000000001000000004112001003200                                                                                2
40622072052200000000200054343200000000000000                                                                                                                                                                                                                                                                                                                    
2062214261020010001205288882000                                                                                                                                                                                                                                                                                                                                 
3062214205212990000015420528888  0000490000000000000000          00000036060000000000000000000000000000000000599990OTRA PRUEBA,PERO ESTA VEZ DE PAGO                                                                                                                                                                                                            
3062214205212990000016520528888  0001820000900000000000          00000012312000000000000000000000000000000000000001Y OTRA PRUEBA MÁS DE PAGO                                                                                                                                                                                                                    
40622142052200000000200000048372000000000000                                                                                                                                                                                                                                                                                                                    
506220026102001000120528888200000001400000600054925274000000000000                                                                                                                                                                                                                                                                                              
6062100261020010001205288882000                                                                                                                                                                                                                                                                                                                                 
7062103004911000000001420528888  0000490000000000000000          00000075067000000000000000000000000000000000000001010200100000100512190                                                                                                                                                                                                                        
7062102018213450000001420528888  0001820000900000000000          00000007412000000000000000000000000000000000123321810200100000000000290                                                                                                                                                                                                                        
806210026102001000120528888200000000400000200000082479000000000000                                                                                                                                                                                                                                                                                              
6062200261020010001205288882000                                                                                                                                                                                                                                                                                                                                 
7062203018212700000012020528888  0001820000900000000000          00000009999000000000000000000000000000000000000001910200100000000000290                                                                                                                                                                                                                        
806220026102001000120528888200000000300000100000009999000000000000                                                                                                                                                                                                                                                                                              
906200000006265037600000000000000000000000924780000000000000000000040000046000017000003                                                                                                                                                                                                                                                                         
