0162000221020010001205288882000                                                                                                                                                                                                                                                                                                                                 
1062100221020010001205288882000                                                                                                                                                                                                                                                                                                                                 
2062102221020010001205288882000                                                                                                                                                                                                                                                                                                                                 
3062102205212780000001420528888  0000308888500000000000          00000152717000000000000000000000000000000002541000200000627319181120000000000035                                                                                                                                                                                                               
3062102205212950000001620528888  0000490000000000000000          00001407110000000000000000000000000000000023412340100000000234231220000140711000                                                                                                                                                                                                               
3062102205212780000002520528888  0000490000000000000000          00000601012000000000000000000000000000000000000000200000001345672210000000000038                                                                                                                                                                                                               
3062102205212830000001520528320  0000499992410123456789          00000075126000000000000000000000000000000001250000130000000123451210001663860035                                                                                                                                                                                                               
3062102205212780000003620528888  0001468888900000000000          00001085751000000000000000000000000000000000000000200002727626422220000000000035                                                                                                                                                                                                               
406210220528888200000000500003321717000000000000                                                                                                                                                                                                                                                                                                                
2062103221020010001205288882000                                                                                                                                                                                                                                                                                                                                 
3062103205212950000002020528888  0000460000800000000000          000000009020000000000000000000000000000000000150000300000000000000000000000000000000000000000000000001510200101                                                                                00000000800000102000000                                                                         
3062103205212780000004020528888  0000490000000000000000          00000015025000000000000000000000123456000000250000030000000000000000000000000000000000000000000000000        01                                                                                00000000000000000000000                                                                         
406210320528888200000000200000015927000000000000                                                                                                                                                                                                                                                                                                                
2062105221020010001205288882000                                                                                                                                                                                                                                                                                                                                 
3062105205212780000008420528322  0001250000900000000000          0000000205200000000000000000000000000000000003415000000000000000000000000000000002GASTOS DE PROTESTO DEL EFECTO NRO. 01251234567890152                                                                                                                                                         
406210520528888200000000100000002052000000000000                                                                                                                                                                                                                                                                                                                
2062112221020010001205288882000                                                                                                                                                                                                                                                                                                                                 
3062112205212830000002620528123  0000490000000000000000          00000030051000000000000000000000000000000000500000100000000000000003000001000000000000                                                                                                                                                                                                         
3062112205212830000003020528888  0000820000600000000000          000000030050000000000000000000000000000000000500001012345678901234520000012000000000000IMPORTE PRINCIPAL ERRONEO                                                                                                                                                                               
406211220528888200000000200000033056000000000000                                                                                                                                                                                                                                                                                                                
2062114221020010001205288882000                                                                                                                                                                                                                                                                                                                                 
3062114205212830000004120528888  0001280123300000000000          00000030051000000000000000000000000000000000500001PROBANDO EL CATORCE                                                                                                                                                                                                                          
3062114205212830000005220528888  0021000000600000000000          00000032455000000000000000000000000000000000540000CONCEPTO                                                                                                                                                                                                                                     
406211420528888200000000200000062505000000000000                                                                                                                                                                                                                                                                                                                
506210022102001000120528888200000002400001200003435258000000000000                                                                                                                                                                                                                                                                                              
1062200221020010001205288882000                                                                                                                                                                                                                                                                                                                                 
2062203221020010001205288882000                                                                                                                                                                                                                                                                                                                                 
3062203205212780000007320528888  0001460000000000000000          00001933165000000000000000000000000000000032165160030000000000000000000000000000000000000000000000000        01                                                                                00321651600000000000000                                                                         
406220320528888200000000100001933165000000000000                                                                                                                                                                                                                                                                                                                
2062214221020010001205288882000                                                                                                                                                                                                                                                                                                                                 
3062214205212830000006320528888  0000491234161234567890          00000002525000000000000000000000000000000000000000PROBANDO PAGOS                                                                                                                                                                                                                               
3062214205212830000007420528888  0001280000100000000000          00000021035000000000000000000000000000000000350001CONCEPTO COMPLEMENTARIO                                                                                                                                                                                                                      
406221420528888200000000200000023560000000000000                                                                                                                                                                                                                                                                                                                
506220022102001000120528888200000000900000300001956725000000000000                                                                                                                                                                                                                                                                                              
6062100221020010001205288882000                                                                                                                                                                                                                                                                                                                                 
7062102205212830000008520528888  0001250000900000000000          00000015025000000000000000000000000000000000250000000000000000000000110        VAMOS A VER QUE PASA                                                                                                                                                                                            
806210022102001000120528888200000000300000100000015025000000000000                                                                                                                                                                                                                                                                                              
6062200221020010001205288882000                                                                                                                                                                                                                                                                                                                                 
7062202205212830000009620528888  0001250000900000000000          00000030051000000000000000000000000000000000500000000000000000000000190                                                                                                                                                                                                                        
7062202205212830000005220528888  0001820000900000000000          00000000668000000000000000000000000000000000011110000000000000000000290                                                                                                                                                                                                                        
806220022102001000120528888200000000400000200000030718000000000000                                                                                                                                                                                                                                                                                              
906200000000539198300000000000000000000000457440000000000000000000090000042000015000003                                                                                                                                                                                                                                                                         
