0162000301020010002205288882000                                                                                                                                                                                                                                                                                                                                 
1062100301020010002205288882000                                                                                                                                                                                                                                                                                                                                 
2062106301020010002205288882000                                                                                                                                                                                                                                                                                                                                 
3062106205212990000020220528888  0000490000000000000000          000000204340000000000000000000000000000000003400023424543545      2341242143      00000000                                   SAULO ALVARADO MATOS                                                  000000000000000   019000001434                                                              
3062106205212990000021320528888  0001820000900000000000          00000012000000000000000000000000000000000000000001                                00000000                                                                                                         000001000000000USD010250001750                                                              
40621062052200000000200000032434000000000000                                                                                                                                                                                                                                                                                                                    
2062108301020010002205288882000                                                                                                                                                                                                                                                                                                                                 
3062108205213020000004220528888  0000490000000000000000          0000090000000000000026000490000000012000000000000                                                                                                                                                                                                                                              
3062108205213020000005320528888  0001820000900000000000          0000027045500000000029901820000900012400000450000                                                                                                                                                                                                                                              
40621082052200000000200001170455000000000000                                                                                                                                                                                                                                                                                                                    
2062109301020010002205288882000                                                                                                                                                                                                                                                                                                                                 
3062109205212990000024620528888  0000490000000000000000          000010000000000000000000000000000000000000000000000000005000USD26102001000002000000                                                                                                                                                                                                            
40621092052200000000100001000000000000000000                                                                                                                                                                                                                                                                                                                    
2062110301020010002205288882000                                                                                                                                                                                                                                                                                                                                 
3062110205212990000025020528888  0001820000900000000000          00000000902000000000000000000000000000000000015000324NADA QUE ANOTAR                                                                 1                                                                                                                                                         
40621102052200000000100000000902000000000000                                                                                                                                                                                                                                                                                                                    
506210030102001000220528888200000001600000600002203791000000000000                                                                                                                                                                                                                                                                                              
1062200301020010002205288882000                                                                                                                                                                                                                                                                                                                                 
2062209301020010002205288882000                                                                                                                                                                                                                                                                                                                                 
3062209205212990000028320528888  0001820000900000000000          000005000000000000000000000000000000000000000000000000003571USD26102001000001400000                                                                                                                                                                                                            
40622092052200000000100000500000000000000000                                                                                                                                                                                                                                                                                                                    
2062210301020010002205288882000                                                                                                                                                                                                                                                                                                                                 
3062210205212990000029420528888  0000490000000000000000          00000001460000000000000000000000000000000000000000424TAMPOCO HAY NADA QUE OBJETAR                                                    2                                                                                                                                                         
40622102052200000000100000001460000000000000                                                                                                                                                                                                                                                                                                                    
506220030102001000220528888200000000800000200000501460000000000000                                                                                                                                                                                                                                                                                              
6062100301020010002205288882000                                                                                                                                                                                                                                                                                                                                 
7062108004912970000017220528888  0000490000000000000000          00000025100000000000000000000000000000000000000001010200100000028000190        PRUEBA 08-COBRO                                                                                                                                                                                                 
7062106004912970000019420528888  0000490000000000000000          00000020434000000000000000000000000000000000340001710200100000020434290        PRUEBA 06-COBRO                                                                                                                                                                                                 
7062110018212880000013620528888  0001820000900000000000          00000076000000000000000000000000000000000000000002510200100000076000290        PRUEBA 10-COBRO                                                                                                                                                                                                 
7062109018212880000012520528888  0001820000900000000000          00000012000000000000000000000000000000000000000001610200100000012000290        PRUEBA 09-COBRO                                                                                                                                                                                                 
7062104018212750000099420528888  0001820000900000000000          00000010818000000000000000000000000000000000180000410200100000027800190        PRUEBA 04-COBRO                                                                                                                                                                                                 
806210030102001000220528888200000000700000500000144352000000000000                                                                                                                                                                                                                                                                                              
6062200301020010002205288882000                                                                                                                                                                                                                                                                                                                                 
7062210004912790000001220528888  0000490000000000000000          00000402678000000000000000000000000000000006700001210200100000520012190        PRUEBA 10-PAGO                                                                                                                                                                                                  
7062209004912970000010220528888  0000490000000000000000          00000058899000000000000000000000000000000000980002310200100000078000190        PRUEBA 09-PAGO                                                                                                                                                                                                  
7062204004912990000010120528888  0000490000000000000000          00000013550000000000000000000000000000000000000001810200100000013550290        PRUEBA 04-PAGO                                                                                                                                                                                                  
806220030102001000220528888200000000500000300000475127000000000000                                                                                                                                                                                                                                                                                              
906200000000270525100000000000000000000006194790000000000000000000040000038000008000008                                                                                                                                                                                                                                                                         
