0162000301020010001205288882000                                                                                                                                                                                                                                                                                                                                 
1062100301020010001205288882000                                                                                                                                                                                                                                                                                                                                 
2062102301020010001205288882000                                                                                                                                                                                                                                                                                                                                 
3062102205212990000002520528888  0001820000900000000000          00001000000000000000000000000000000000000000000000320000000000002210001500000000                                                                                                                                                                                                               
40621022052200000000100001000000000000000000                                                                                                                                                                                                                                                                                                                    
2062103301020010001205288882000                                                                                                                                                                                                                                                                                                                                 
3062103205213020000001620528888  0000490000000000000000          00000171288000000000299004900000000622000002850000080049129900000016                        000002421810200103PRUEBA PARA COMPROBAR QUE LA CLAVE DE AUTORIZACION ES VALIDA                    00000171288000000000000                                                                          
40621032052200000000100000171288000000000000                                                                                                                                                                                                                                                                                                                    
2062105301020010001205288882000                                                                                                                                                                                                                                                                                                                                 
3062105205212990000006220528888  0000490000000000000000          0000423420000000000000000000000000000000000000000300491200000023331                                                                                                                                                                                                                            
3062105205212990000017620528888  0001820000900000000000          0000005745700000000000000000000000000000000095600011111111111111112                                                                                                                                                                                                                            
3062105205212990000007320528888  0001820000900000000000          0000001081800000000000000000000000000000000018000200000000000000002                                                                                                                                                                                                                            
40621052052200000000300004302475000000000000                                                                                                                                                                                                                                                                                                                    
2062112301020010001205288882000                                                                                                                                                                                                                                                                                                                                 
3062112205212990000008420528888  0000490000000000000000          00000019859000000000000000000000000000000000330420400000000000000000198591000000000000                                                                                                                                                                                                         
3062112205212990000009520528888  0001820000900000000000          00000001205000000000000000000000000000000000000000100000001231231230011002000105000000RECUPERACION EFECTUADA POR PEPITO PEREZ                                                                                                                                                                  
40621122052200000000200000021064000000000000                                                                                                                                                                                                                                                                                                                    
2062114301020010001205288882000                                                                                                                                                                                                                                                                                                                                 
3062114205212990000010620528888  0000490000000000000000          00000060402000000000000000000000000000000001005001PRUEBA DEL REGISTRO 14                                                                                                                                                                                                                       
3062114205212990000011020528888  0001820000900000000000          00000008934000000000000000000000000000000000000000SIN REGULARIZACIÓN C.U.C                                                                                                                                                                                                                     
40621142052200000000200000069336000000000000                                                                                                                                                                                                                                                                                                                    
506210030102001000120528888200000002100000900005564163000000000000                                                                                                                                                                                                                                                                                              
1062200301020010001205288882000                                                                                                                                                                                                                                                                                                                                 
2062207301020010001205288882000                                                                                                                                                                                                                                                                                                                                 
3062207205213020000002020528888  0000490000000000000000          000002000000000000000000000000000000000000000000012112001300491266000066651000002500000000019000025102001010000                                                                                2
3062207205213020000003120528888  0001820000900000000000          000003005060000000000000000000000000000000050000010102001301821289000111112000003005060000025000000000000050506                                                                                2
40622072052200000000200000500506000000000000                                                                                                                                                                                                                                                                                                                    
2062214301020010001205288882000                                                                                                                                                                                                                                                                                                                                 
3062214205212990000015420528888  0000490000000000000000          00000036060000000000000000000000000000000000599990OTRA PRUEBA,PERO ESTA VEZ DE PAGO                                                                                                                                                                                                            
3062214205212990000016520528888  0001820000900000000000          00000012312000000000000000000000000000000000000001Y OTRA PRUEBA MÁS DE PAGO                                                                                                                                                                                                                    
40622142052200000000200000048372000000000000                                                                                                                                                                                                                                                                                                                    
506220030102001000120528888200000001000000400000548878000000000000                                                                                                                                                                                                                                                                                              
6062100301020010001205288882000                                                                                                                                                                                                                                                                                                                                 
7062102004912900000010220528888  0000490000000000000000          00000006010000000000000000000000000000000000100001710200100000012020190        PRUEBA 02-COBROS                                                                                                                                                                                                
7062103018212970000002120528888  0001820000900000000000          00000012000000000000000000000000000000000000000001810200100000012000290        PRUEBA 03-COBROS                                                                                                                                                                                                
7062105018212960000120420528888  0001820000900000000000          00000023400000000000000000000000000000000000000001010200100000045000190        PRUEBA 05-COBRO                                                                                                                                                                                                 
7062101018212970000001020528888  0001820000900000000000          00000003005000000000000000000000000000000000050001810200100000003005290        PRUEBA 01-COBROS                                                                                                                                                                                                
806210030102001000120528888200000000600000400000044415000000000000                                                                                                                                                                                                                                                                                              
6062200301020010001205288882000                                                                                                                                                                                                                                                                                                                                 
7062203004912600000111620528888  0000490000000000000000          00000014000000000000000000000000000000000000000001010200100000027066190        PRUEBA 03-PAGOS                                                                                                                                                                                                 
7062207018212980000099320528888  0001820000900000000000          00000023418000000000000000000000000000000000000001810200100000023418290        PRUEBA 07-PAGOS                                                                                                                                                                                                 
806220030102001000120528888200000000400000200000037418000000000000                                                                                                                                                                                                                                                                                              
906200000000611304100000000000000000000000818330000000000000000000040000043000013000006                                                                                                                                                                                                                                                                         
