0162000251020010005205288882000                                                                                                                                                                                                                                                                                                                                 
1062100251020010005205288882000                                                                                                                                                                                                                                                                                                                                 
2062114251020010005205288882000                                                                                                                                                                                                                                                                                                                                 
3062114205212980000012520528888  0001820000900000000000          00000006010000000000000000000000000000000000100001PRUEBA DE CONCEPTO COMPLEMENTARIO                                                                                                                                                                                                            
3062114205212980000013620528888  0001920000400000000000          00003643500000000000000000000000000000000000000000OTRA PRUEBA                                                                                                                                                                                                                                  
40621142052200000000200003649510000000000000                                                                                                                                                                                                                                                                                                                    
506210025102001000520528888200000000600000200003649510000000000000                                                                                                                                                                                                                                                                                              
906200000000364951000000000000000000000000000000000000000000000000010000008000002000000                                                                                                                                                                                                                                                                         
