0162000251020010002205288882000                                                                                                                                                                                                                                                                                                                                 
1062100251020010002205288882000                                                                                                                                                                                                                                                                                                                                 
2062103251020010002205288882000                                                                                                                                                                                                                                                                                                                                 
3062103205212980000004420528888  0000490000000000000000          000000300510000000000000000000000000000000005000000300000000000000000000000000000000000000000000000001210200103                                                                                00000030051000000000000                                                                         
3062103205212980000005520528888  0001420000700000000000          0000090000000000000000000000245425325400000000000005000000000000000000000023423444705729P0000000000002010200104OLUAS GRIJANDERL                                                                00000850000025000025000                                                                         
40621032052200000000200000930051000000000000                                                                                                                                                                                                                                                                                                                    
506210025102001000220528888200000000600000200000930051000000000000                                                                                                                                                                                                                                                                                              
1062200251020010002205288882000                                                                                                                                                                                                                                                                                                                                 
2062203251020010002205288882000                                                                                                                                                                                                                                                                                                                                 
3062203205212980000006620528888  0000880000100000000000          000010000000000000000000000000000000000000000000000600000000000000000000000000000000000000000245325451810200105                                                                                00001000000000000000000                                                                         
3062203205212980000007020528888  0001900000200000000000          000000402680000000000000000000000000000000006700000300000000000000000000000000000000000000000000000001210200105                                                                                00000900000000000000000                                                                         
40622032052200000000200001040268000000000000                                                                                                                                                                                                                                                                                                                    
506220025102001000220528888200000000600000200001040268000000000000                                                                                                                                                                                                                                                                                              
906200000000197031900000000000000000000000000000000000000000000000020000014000004000000                                                                                                                                                                                                                                                                         
