0162000261020010002205288882000                                                                                                                                                                                                                                                                                                                                 
1062100261020010002205288882000                                                                                                                                                                                                                                                                                                                                 
2062104261020010002205288882000                                                                                                                                                                                                                                                                                                                                 
3062104205212990000018020528888  0000490000000000000000          00000017945000000000000000000002543254000000000000050000000000034324      23423444444444A000000000000410200104SAULO ALVARADO MATEOS                                                           00000016500000603000842                                                                          
3062104205212990000019120528888  0001820000900000000000          00000009015000000000000000000000000000000000150000030000000000000234                        000000001810200101PRUEBA DE OPERACIÓN TIPO 04 - COBRO (01)                                        00000008500000515000000                                                                          
40621042052200000000200000026960000000000000                                                                                                                                                                                                                                                                                                                    
2062106261020010002205288882000                                                                                                                                                                                                                                                                                                                                 
3062106205212990000020220528888  0000490000000000000000          000000204340000000000000000000000000000000003400023424543545      2341242143      00000000                                   SAULO ALVARADO MATOS                                                  000000000000000   019000001434                                                              
3062106205212990000021320528888  0001820000900000000000          00000012000000000000000000000000000000000000000001                                00000000                                                                                                         000001000000000USD010250001750                                                              
40621062052200000000200000032434000000000000                                                                                                                                                                                                                                                                                                                    
2062108261020010002205288882000                                                                                                                                                                                                                                                                                                                                 
3062108205212990000022420528888  0000490000000000000000          0000060101200000000000000000000003423400001000000                                                                                                                                                                                                                                              
3062108205212990000023520528888  0001820000900000000000          0000009785000000000000000000000245214500000000000                                                                                                                                                                                                                                              
40621082052200000000200000698862000000000000                                                                                                                                                                                                                                                                                                                    
2062109261020010002205288882000                                                                                                                                                                                                                                                                                                                                 
3062109205212990000024620528888  0000490000000000000000          000010000000000000000000000000000000000000000000000000005000USD2610200100002000000                                                                                                                                                                                                             
40621092052200000000100001000000000000000000                                                                                                                                                                                                                                                                                                                    
2062110261020010002205288882000                                                                                                                                                                                                                                                                                                                                 
3062110205212990000025020528888  0001820000900000000000          00000000902000000000000000000000000000000000015000324NADA QUE ANOTAR                                                                 1                                                                                                                                                         
40621102052200000000100000000902000000000000                                                                                                                                                                                                                                                                                                                    
506210026102001000220528888200000002000000800001759158000000000000                                                                                                                                                                                                                                                                                              
1062200261020010002205288882000                                                                                                                                                                                                                                                                                                                                 
2062204261020010002205288882000                                                                                                                                                                                                                                                                                                                                 
3062204205212990000026120528888  0000490000000000000000          00000040869000000000000000000000000000000000680000040000000000353254                        111111111810200105                                                                                00000040869000000000000                                                                          
3062204205212990000027220528888  0001820000900000000000          00000900000000000000000000000000022222000000000000080182128500000101                        000000000310200104PRUEBA DE OPERACION TIPO 04, PAGOS (02)                                         00000867000023000010000                                                                          
40622042052200000000200000940869000000000000                                                                                                                                                                                                                                                                                                                    
2062209261020010002205288882000                                                                                                                                                                                                                                                                                                                                 
3062209205212990000028320528888  0001820000900000000000          000005000000000000000000000000000000000000000000000000003571USD2610200100001400000                                                                                                                                                                                                             
40622092052200000000100000500000000000000000                                                                                                                                                                                                                                                                                                                    
2062210261020010002205288882000                                                                                                                                                                                                                                                                                                                                 
3062210205212990000029420528888  0000490000000000000000          00000001460000000000000000000000000000000000000000424TAMPOCO HAY NADA QUE OBJETAR                                                    2                                                                                                                                                         
40622102052200000000100000001460000000000000                                                                                                                                                                                                                                                                                                                    
506220026102001000220528888200000001200000400001442329000000000000                                                                                                                                                                                                                                                                                              
6062100261020010002205288882000                                                                                                                                                                                                                                                                                                                                 
7062106018212700000022320528888  0001820000900000000000          00000003250000000000000000000000000000000000000000410200100000010078190        OTRA PRUEBA DE DEVOLUCIÓN                                                                                                                                                                                       
806210026102001000220528888200000000300000100000003250000000000000                                                                                                                                                                                                                                                                                              
6062200261020010002205288882000                                                                                                                                                                                                                                                                                                                                 
7062204004912590000001520528888  0000490000000000000000          00000000871000000000000000000000000000000000014501810200100000000000290        PRUEBA DE DEVOLUCIÓN DENTRO DE UN SOPORTE NO DOCUMENTAL (PAGO-1)                                                                                                                                                
7062210018212940000001520528888  0001820000900000000000          00000001200000000000000000000000000000000000000001810200100000000000290        OTRA PRUEBA                                                                                                                                                                                                     
806220026102001000220528888200000000400000200000002071000000000000                                                                                                                                                                                                                                                                                              
906200000000320148700000000000000000000000053210000000000000000000040000041000012000003                                                                                                                                                                                                                                                                         
