0162000090520020001205288882000                                                                                                                                                                                                                                                                                                                                 
1062100090520020001205288882000                                                                                                                                                                                                                                                                                                                                 
2062106090520020001205288882000                                                                                                                                                                                                                                                                                                                                 
3062106205221290000001220528888  0001820000900000000000          0000100000000000000000000000000000000000000000000132136546        3213545         01062002SFSAFASDF                          SFASDF                             SDFSADF                            000000021032101USD500000500000                                                              
40621062052200000000100001000000000000000000                                                                                                                                                                                                                                                                                                                    
506210009052002000120528888200000000500000100001000000000000000000                                                                                                                                                                                                                                                                                              
906200000000100000000000000000000000000000000000000000000000000000010000007000001000000                                                                                                                                                                                                                                                                         
